:100000000C942A000C9447000C9447000C94470071
:100010000C9447000C9447000C9417050C94C504ED
:100020000C94EE040C949C040C9447000C94470030
:100030000C9447000C9447000C9447000C94470024
:100040000C9447000C9447000C9447000C94470014
:100050000C94470011241FBECFE5D4E0DEBFCDBF16
:1000600010E0A0E6B0E0ECEBFBE002C005900D92E2
:10007000AC3BB107D9F720E0ACEBB0E001C01D927A
:10008000A43CB207E1F70E9434020C94DC050C9406
:1000900000000E9439020E941B010E94140265E0C8
:1000A00080E00E944C0180E690E00E945F0163E0E6
:1000B00081E00E944C0188E690E00E945F012FEFF2
:1000C00083ED90E3215080409040E1F700C00000B4
:1000D0000E940C0265E080E00E944C0184E790E001
:1000E0000E945F0160E081E00E944C018DE790E09A
:1000F0000E945F016CE081E00E944C0123E030E04F
:1001000040E050E060E070E080E090E00E94780124
:1001100084E60E942302C3E010E0D0E088E10E9460
:10012000C60381113AC0D11138C01C163CF411111C
:1001300033C00E942302C150D1E02FC00E940C02A4
:1001400065E080E00E944C0188E890E00E945F0139
:1001500062E081E00E944C018EE890E00E945F0125
:100160002FEF83ED90E3215080409040E1F700C0F5
:1001700000000E940C0265E080E00E944C0184E7D0
:1001800090E00E945F0160E081E00E944C018DE7F9
:1001900090E00E945F0101C0D1E088E10E94C603A7
:1001A0008823D9F389E10E94C60381110AC0111185
:1001B00008C0D11105C00E942302CF5F11E001C029
:1001C00011E089E10E94C6038823D9F3D13039F4C4
:1001D000113029F484E60E94230210E0D0E06CE0A4
:1001E00081E00E944C012C2F9C2F990F990B392FE5
:1001F000492F592F692F792F892F0E9478018ECF8F
:10020000682F80E00E942A0360E088E00E943C039F
:1002100060E089E00E943C0361E08AE00E943C03C8
:100220008FEC97E00197F1F700C0000060E08AE0F2
:100230000E943C0308958FE39CE90197F1F700C009
:10024000000088E30E9400018CE00E94000181E030
:100250000E94000186E00E94000180E80E940001E7
:100260000895682F80E00E942A0361E088E00E94E0
:100270003C0360E089E00E943C0361E08AE00E9468
:100280003C038FEC97E00197F1F700C0000060E0BD
:100290008AE00E943C030895882329F0813031F0E0
:1002A00080E090E005C080E890E002C080EC90E043
:1002B000603110F4860F911D0E94000108950F9384
:1002C0001F93CF938C01C0E009C00E9431018FECD5
:1002D00097E00197F1F700C00000CF5FF801EC0F45
:1002E000F11D80818111F1CFCF911F910F91089560
:1002F0002F923F924F925F926F927F928F929F9236
:10030000AF92BF92CF92DF92EF92FF920F931F9323
:10031000CF93DF93CDB7DEB763970FB6F894DEBF08
:100320000FBECDBF298B3A8B4B8B852E762E672E39
:10033000382E292EA0E00E94D005B9F580E30E9456
:10034000310151C0492C512C0F2EFAE0AF2EF02D67
:10035000B12CC12CD12CE12CF12C00E010E029892A
:100360003A894B89582D672D762D832D922D0E9429
:100370007105E1E0F0E0EC0FFD1FE40DF51D205DDF
:10038000208329893A894B89582D672D762D832D15
:10039000922D0E947305298B3A8B4B8B852E762EDE
:1003A000672E382E292E939401C0912C29893A89E1
:1003B0004B89582D672D762D832D922DA0E00E941C
:1003C000D00509F0BFCF0DC0E92DF0E0319781E0F5
:1003D00090E08C0F9D1FE80FF91F80810E94310172
:1003E0009A949110F1CF63960FB6F894DEBF0FBECA
:1003F000CDBFDF91CF911F910F91FF90EF90DF90D4
:10040000CF90BF90AF909F908F907F906F905F90B4
:100410004F903F902F90089581E00E94000160E08E
:1004200080E00E944C01089522E040E062E083E019
:100430000E9402048FE19EE497BD86BD87EE93E0A3
:1004400099BD88BD0895282F30E0A8EEB3E00E9442
:10045000620524EB30E040E050E00E944005295165
:100460003C4F39BD28BD08950E94490080E090E0CE
:10047000089580E0EBC0E82FF0E0E556FF4F908153
:10048000282F269526952695382F3770913009F418
:1004900041C020F0923009F489C0D7C0213099F0D2
:1004A00028F02230E9F0233041F1CFC09AB341E087
:1004B00050E0BA0102C0660F771F3A95E2F79B0140
:1004C000292B2ABBC2C097B341E050E0BA0102C059
:1004D000660F771F3A95E2F79B01292B27BBB5C022
:1004E00094B341E050E0BA0102C0660F771F3A951D
:1004F000E2F79B01292B24BBA8C091B341E050E057
:10050000BA0102C0660F771F3A95E2F79B01292BCB
:1005100021BB9BC02130B9F028F0223029F12330D3
:10052000A1F193C09AB341E050E0BA0102C0660F56
:10053000771F3A95E2F79B01209592239ABB9BB3D4
:1005400029232BBB82C097B341E050E0BA0102C01F
:10055000660F771F3A95E2F79B012095922397BB90
:1005600098B3292328BB71C094B341E050E0BA018D
:1005700002C0660F771F3A95E2F79B012095922300
:1005800094BB95B3292325BB60C091B341E050E0F3
:10059000BA0102C0660F771F3A95E2F79B012095DA
:1005A000922391BB92B3292322BB4FC02130C1F0CB
:1005B00028F0223039F12330B9F147C09AB341E035
:1005C00050E0BA0102C0660F771F3A95E2F79B012F
:1005D000362F309593239ABB9BB3292B2BBB35C069
:1005E00097B341E050E0BA0102C0660F771F3A9519
:1005F000E2F79B01362F3095932397BB98B3292BB5
:1006000028BB23C094B341E050E0BA0102C0660F9A
:10061000771F3A95E2F79B01362F3095932394BBD1
:1006200095B3292B25BB11C091B341E050E0BA012D
:1006300002C0660F771F3A95E2F79B01362F30957F
:10064000932391BB92B3292B22BB8F5F803208F496
:1006500012CF0895843078F4813041F028F0823050
:1006600039F0833039F008956BBB089568BB089565
:1006700065BB089562BB0895803208F086C0982F4C
:100680009695969596958770662309F43FC06130DC
:1006900009F07BC0913099F028F09230E9F0933066
:1006A00041F108954BB321E030E0B90102C0660F7B
:1006B000771F8A95E2F7CB01842B8BBB089548B353
:1006C00021E030E0B90102C0660F771F8A95E2F79A
:1006D000CB01842B88BB089545B321E030E0B901FC
:1006E00002C0660F771F8A95E2F7CB01842B85BB8A
:1006F000089542B321E030E0B90102C0660F771FD0
:100700008A95E2F7CB01842B82BB08959130A1F04A
:1007100028F09230F9F0933059F108954BB321E06D
:1007200030E0B90102C0660F771F8A95E2F7CB016E
:10073000809584238BBB089548B321E030E0B90154
:1007400002C0660F771F8A95E2F7CB01809584235C
:1007500088BB089545B321E030E0B90102C0660FBF
:10076000771F8A95E2F7CB018095842385BB089596
:1007700042B321E030E0B90102C0660F771F8A95CD
:10078000E2F7CB018095842382BB08958032B0F5D7
:10079000982F969596959695482F4770913081F0B1
:1007A00028F09230B9F09330F9F02AC099B3892F2C
:1007B00090E002C0959587954A95E2F7817008957B
:1007C00026B330E0C90102C0959587954A95E2F7B6
:1007D0008170089523B330E0C90102C095958795D3
:1007E0004A95E2F78170089520B330E0C90102C054
:1007F000959587954A95E2F78170089580E0089570
:1008000080E00895823029F128F4882341F0813076
:1008100099F045C0833051F18430A9F140C08FB5C3
:100820008E7F8FBD8FB58D7F8FBD8EB5877F8EBD3F
:100830008EB58F7E8EBD33C08FB58E7F8FBD8FB549
:100840008D7F8FBD8EB588608EBD8EB580618EBD6B
:1008500026C08FB58E7F8FBD8FB58D7F8FBD8EB536
:1008600088608EBD8EB58F7E8EBD19C08FB58E7F90
:100870008FBD8FB582608FBD8EB588608EBD8EB501
:1008800080618EBD0CC08FB581608FBD8FB58260D9
:100890008FBD8EB588608EBD8EB580618EBD4130B6
:1008A00069F028F0423089F04330B1F01BC08FB5B9
:1008B0008F7B8FBD8FB58F778FBD14C08FB5806450
:1008C0008FBD8FB58F778FBD0DC08FB58F7B8FBDDF
:1008D0008FB580688FBD06C08FB580648FBD8FB522
:1008E00080688FBD213069F028F0223089F02330F4
:1008F000B1F01BC08FB58F7E8FBD8FB58F7D8FBD43
:1009000014C08FB580618FBD8FB58F7D8FBD0DC039
:100910008FB58F7E8FBD8FB580628FBD06C08FB5BE
:1009200080618FBD8FB580628FBD8EB5887F8EBD93
:100930008EB5682B6EBD08951F920F920FB60F9261
:1009400011242F933F934F935F936F937F938F93D4
:100950009F93AF93BF93EF93FF93E091C200F09109
:10096000C300309709F00995FF91EF91BF91AF91C6
:100970009F918F917F916F915F914F913F912F91B7
:100980000F900FBE0F901F9018951F920F920FB6E9
:100990000F9211242F933F934F935F936F937F9305
:1009A0008F939F93AF93BF93EF93FF93E091C0001A
:1009B000F091C100309709F00995FF91EF91BF9137
:1009C000AF919F918F917F916F915F914F913F91E7
:1009D0002F910F900FBE0F901F9018951F920F929E
:1009E0000FB60F9211242F933F934F935F936F9302
:1009F0007F938F939F93AF93BF93EF93FF93E09178
:100A0000BE00F091BF00309709F00995FF91EF917A
:100A1000BF91AF919F918F917F916F915F914F9116
:100A20003F912F910F900FBE0F901F9018951F921E
:100A30000F920FB60F9211242F933F934F935F9312
:100A40006F937F938F939F93AF93BF93EF93FF9396
:100A5000E091BC00F091BD00309709F00995FF913D
:100A6000EF91BF91AF919F918F917F916F915F9126
:100A70004F913F912F910F900FBE0F901F9018959F
:100A8000A1E21A2EAA1BBB1BFD010DC0AA1FBB1F92
:100A9000EE1FFF1FA217B307E407F50720F0A21B04
:100AA000B30BE40BF50B661F771F881F991F1A9471
:100AB00069F760957095809590959B01AC01BD019B
:100AC000CF010895A29FB001B39FC001A39F700DF5
:100AD000811D1124911DB29F700D811D1124911D46
:100AE0000895689401C0E8948F929F92CF93DF930A
:100AF0000E947F05DF91CF919F908F900895882469
:100B00009924F401E401B0E49F93AA279A158B0479
:100B10009C04ED05FE05CF05D007A10798F4AD2F85
:100B2000DC2FCF2FFE2FE92D982C892E982F872F81
:100B3000762F652F542F432F322F2227B85031F7AD
:100B4000BF9127C01B2EBF91BB27220F331F441F0D
:100B5000551F661F771F881F991F881C991CEE1F41
:100B6000FF1FCC1FDD1FAA1FBB1F8A149B04EC05AF
:100B7000FD05CE05DF05A007B10748F08A189B08E0
:100B8000EC09FD09CE09DF09A00BB10B21601A9415
:100B9000E1F62EF49401AF01BE01CD01000C0895E1
:100BA0000024A7FD00942A17300540055005600574
:0C0BB0007005800590050895F894FFCFB3
:100BBC0057656C636F6D65005061726B696E672071
:100BCC004361720057656C636F6D652100417661FE
:100BDC00696C61626C653A00536F72727900506196
:100BEC00726B696E672046756C6C0000000000002B
:100BFC0000000000000000000000000101000000E7
:0C0C0C00000000000000000000000000DC
:00000001FF
